{
  "_format": "hh-sol-artifact-1",
  "contractName": "NFT",
  "sourceName": "contracts/NFT.sol",
  "abi": [
    {
      "inputs": [],
      "stateMutability": "nonpayable",
      "type": "constructor"
    },
    {
      "anonymous": false,
      "inputs": [
        {
          "indexed": true,
          "internalType": "address",
          "name": "owner",
          "type": "address"
        },
        {
          "indexed": true,
          "internalType": "address",
          "name": "approved",
          "type": "address"
        },
        {
          "indexed": true,
          "internalType": "uint256",
          "name": "tokenId",
          "type": "uint256"
        }
      ],
      "name": "Approval",
      "type": "event"
    },
    {
      "anonymous": false,
      "inputs": [
        {
          "indexed": true,
          "internalType": "address",
          "name": "owner",
          "type": "address"
        },
        {
          "indexed": true,
          "internalType": "address",
          "name": "operator",
          "type": "address"
        },
        {
          "indexed": false,
          "internalType": "bool",
          "name": "approved",
          "type": "bool"
        }
      ],
      "name": "ApprovalForAll",
      "type": "event"
    },
    {
      "anonymous": false,
      "inputs": [
        {
          "indexed": true,
          "internalType": "address",
          "name": "from",
          "type": "address"
        },
        {
          "indexed": true,
          "internalType": "address",
          "name": "to",
          "type": "address"
        },
        {
          "indexed": true,
          "internalType": "uint256",
          "name": "tokenId",
          "type": "uint256"
        }
      ],
      "name": "Transfer",
      "type": "event"
    },
    {
      "inputs": [
        {
          "internalType": "uint256",
          "name": "nftId",
          "type": "uint256"
        },
        {
          "internalType": "uint256",
          "name": "tokenAmount",
          "type": "uint256"
        }
      ],
      "name": "BorrowNft",
      "outputs": [],
      "stateMutability": "nonpayable",
      "type": "function"
    },
    {
      "inputs": [
        {
          "internalType": "uint256",
          "name": "nftId",
          "type": "uint256"
        },
        {
          "internalType": "uint256",
          "name": "tokenAmount",
          "type": "uint256"
        }
      ],
      "name": "RepayNft",
      "outputs": [],
      "stateMutability": "nonpayable",
      "type": "function"
    },
    {
      "inputs": [
        {
          "internalType": "address",
          "name": "to",
          "type": "address"
        },
        {
          "internalType": "uint256",
          "name": "tokenId",
          "type": "uint256"
        }
      ],
      "name": "approve",
      "outputs": [],
      "stateMutability": "nonpayable",
      "type": "function"
    },
    {
      "inputs": [
        {
          "internalType": "address",
          "name": "owner",
          "type": "address"
        }
      ],
      "name": "balanceOf",
      "outputs": [
        {
          "internalType": "uint256",
          "name": "",
          "type": "uint256"
        }
      ],
      "stateMutability": "view",
      "type": "function"
    },
    {
      "inputs": [
        {
          "internalType": "uint256",
          "name": "tokenid",
          "type": "uint256"
        }
      ],
      "name": "borrowdetailsflag",
      "outputs": [
        {
          "internalType": "bool",
          "name": "",
          "type": "bool"
        }
      ],
      "stateMutability": "view",
      "type": "function"
    },
    {
      "inputs": [
        {
          "internalType": "uint256",
          "name": "tokenid",
          "type": "uint256"
        }
      ],
      "name": "borrowdetailsprice",
      "outputs": [
        {
          "internalType": "uint256",
          "name": "",
          "type": "uint256"
        }
      ],
      "stateMutability": "view",
      "type": "function"
    },
    {
      "inputs": [
        {
          "internalType": "uint256",
          "name": "tokenId",
          "type": "uint256"
        }
      ],
      "name": "getApproved",
      "outputs": [
        {
          "internalType": "address",
          "name": "",
          "type": "address"
        }
      ],
      "stateMutability": "view",
      "type": "function"
    },
    {
      "inputs": [],
      "name": "getMyNftDetails",
      "outputs": [
        {
          "components": [
            {
              "internalType": "uint256",
              "name": "tokenid",
              "type": "uint256"
            },
            {
              "internalType": "string",
              "name": "url",
              "type": "string"
            },
            {
              "internalType": "uint256",
              "name": "price",
              "type": "uint256"
            },
            {
              "internalType": "bool",
              "name": "borrowed",
              "type": "bool"
            },
            {
              "internalType": "uint256",
              "name": "borrowedAmount",
              "type": "uint256"
            }
          ],
          "internalType": "struct NFT.NftDesc[]",
          "name": "",
          "type": "tuple[]"
        }
      ],
      "stateMutability": "view",
      "type": "function"
    },
    {
      "inputs": [
        {
          "internalType": "address",
          "name": "owner",
          "type": "address"
        },
        {
          "internalType": "address",
          "name": "operator",
          "type": "address"
        }
      ],
      "name": "isApprovedForAll",
      "outputs": [
        {
          "internalType": "bool",
          "name": "",
          "type": "bool"
        }
      ],
      "stateMutability": "view",
      "type": "function"
    },
    {
      "inputs": [
        {
          "internalType": "string",
          "name": "tokenURI",
          "type": "string"
        },
        {
          "internalType": "uint256",
          "name": "nftAmount",
          "type": "uint256"
        }
      ],
      "name": "mintNFT",
      "outputs": [
        {
          "internalType": "uint256",
          "name": "",
          "type": "uint256"
        }
      ],
      "stateMutability": "nonpayable",
      "type": "function"
    },
    {
      "inputs": [],
      "name": "mybal",
      "outputs": [
        {
          "internalType": "uint256",
          "name": "",
          "type": "uint256"
        }
      ],
      "stateMutability": "view",
      "type": "function"
    },
    {
      "inputs": [],
      "name": "name",
      "outputs": [
        {
          "internalType": "string",
          "name": "",
          "type": "string"
        }
      ],
      "stateMutability": "view",
      "type": "function"
    },
    {
      "inputs": [
        {
          "internalType": "uint256",
          "name": "",
          "type": "uint256"
        }
      ],
      "name": "nftBorrowedDetails",
      "outputs": [
        {
          "internalType": "bool",
          "name": "borrowed",
          "type": "bool"
        },
        {
          "internalType": "uint256",
          "name": "borrowedAmount",
          "type": "uint256"
        }
      ],
      "stateMutability": "view",
      "type": "function"
    },
    {
      "inputs": [
        {
          "internalType": "uint256",
          "name": "",
          "type": "uint256"
        }
      ],
      "name": "nftvalue",
      "outputs": [
        {
          "internalType": "uint256",
          "name": "",
          "type": "uint256"
        }
      ],
      "stateMutability": "view",
      "type": "function"
    },
    {
      "inputs": [
        {
          "internalType": "uint256",
          "name": "tokenId",
          "type": "uint256"
        }
      ],
      "name": "ownerOf",
      "outputs": [
        {
          "internalType": "address",
          "name": "",
          "type": "address"
        }
      ],
      "stateMutability": "view",
      "type": "function"
    },
    {
      "inputs": [
        {
          "internalType": "address",
          "name": "from",
          "type": "address"
        },
        {
          "internalType": "address",
          "name": "to",
          "type": "address"
        },
        {
          "internalType": "uint256",
          "name": "tokenId",
          "type": "uint256"
        }
      ],
      "name": "safeTransferFrom",
      "outputs": [],
      "stateMutability": "nonpayable",
      "type": "function"
    },
    {
      "inputs": [
        {
          "internalType": "address",
          "name": "from",
          "type": "address"
        },
        {
          "internalType": "address",
          "name": "to",
          "type": "address"
        },
        {
          "internalType": "uint256",
          "name": "tokenId",
          "type": "uint256"
        },
        {
          "internalType": "bytes",
          "name": "data",
          "type": "bytes"
        }
      ],
      "name": "safeTransferFrom",
      "outputs": [],
      "stateMutability": "nonpayable",
      "type": "function"
    },
    {
      "inputs": [
        {
          "internalType": "address",
          "name": "operator",
          "type": "address"
        },
        {
          "internalType": "bool",
          "name": "approved",
          "type": "bool"
        }
      ],
      "name": "setApprovalForAll",
      "outputs": [],
      "stateMutability": "nonpayable",
      "type": "function"
    },
    {
      "inputs": [
        {
          "internalType": "address",
          "name": "_tokenAddress",
          "type": "address"
        }
      ],
      "name": "setTokenAddress",
      "outputs": [],
      "stateMutability": "nonpayable",
      "type": "function"
    },
    {
      "inputs": [
        {
          "internalType": "bytes4",
          "name": "interfaceId",
          "type": "bytes4"
        }
      ],
      "name": "supportsInterface",
      "outputs": [
        {
          "internalType": "bool",
          "name": "",
          "type": "bool"
        }
      ],
      "stateMutability": "view",
      "type": "function"
    },
    {
      "inputs": [],
      "name": "symbol",
      "outputs": [
        {
          "internalType": "string",
          "name": "",
          "type": "string"
        }
      ],
      "stateMutability": "view",
      "type": "function"
    },
    {
      "inputs": [],
      "name": "tokenAddress",
      "outputs": [
        {
          "internalType": "address",
          "name": "",
          "type": "address"
        }
      ],
      "stateMutability": "view",
      "type": "function"
    },
    {
      "inputs": [
        {
          "internalType": "uint256",
          "name": "tokenId",
          "type": "uint256"
        }
      ],
      "name": "tokenURI",
      "outputs": [
        {
          "internalType": "string",
          "name": "",
          "type": "string"
        }
      ],
      "stateMutability": "view",
      "type": "function"
    },
    {
      "inputs": [
        {
          "internalType": "address",
          "name": "from",
          "type": "address"
        },
        {
          "internalType": "address",
          "name": "to",
          "type": "address"
        },
        {
          "internalType": "uint256",
          "name": "tokenId",
          "type": "uint256"
        }
      ],
      "name": "transferFrom",
      "outputs": [],
      "stateMutability": "nonpayable",
      "type": "function"
    }
  ],
  "bytecode": "0x608060405273dcaa009e6b128bcb514d27db1674674c73b44f67600760006101000a81548173ffffffffffffffffffffffffffffffffffffffff021916908373ffffffffffffffffffffffffffffffffffffffff1602179055503480156200006657600080fd5b506040518060400160405280600881526020017f47616d654974656d0000000000000000000000000000000000000000000000008152506040518060400160405280600381526020017f49544d00000000000000000000000000000000000000000000000000000000008152508160009080519060200190620000eb9291906200010d565b508060019080519060200190620001049291906200010d565b50505062000222565b8280546200011b90620001ec565b90600052602060002090601f0160209004810192826200013f57600085556200018b565b82601f106200015a57805160ff19168380011785556200018b565b828001600101855582156200018b579182015b828111156200018a5782518255916020019190600101906200016d565b5b5090506200019a91906200019e565b5090565b5b80821115620001b95760008160009055506001016200019f565b5090565b7f4e487b7100000000000000000000000000000000000000000000000000000000600052602260045260246000fd5b600060028204905060018216806200020557607f821691505b602082108114156200021c576200021b620001bd565b5b50919050565b61370480620002326000396000f3fe608060405234801561001057600080fd5b50600436106101585760003560e01c8063905cc0d4116100c3578063bd5102b41161007c578063bd5102b4146103ea578063c87b56dd14610406578063d4fee7ee14610436578063e936d74414610466578063e985e9c514610496578063eea65971146104c657610158565b8063905cc0d41461032857806395d89b41146103465780639d76ea5814610364578063a22cb46514610382578063b7de0e651461039e578063b88d4fde146103ce57610158565b806342842e0e1161011557806342842e0e1461022f5780634682aa971461024b5780635afa3a721461027c5780636352211e146102ac57806370615528146102dc57806370a08231146102f857610158565b806301ffc9a71461015d57806306fdde031461018d578063081812fc146101ab578063095ea7b3146101db57806323b872dd146101f757806326a4e8d214610213575b600080fd5b610177600480360381019061017291906123fd565b6104e4565b6040516101849190612445565b60405180910390f35b6101956105c6565b6040516101a291906124f9565b60405180910390f35b6101c560048036038101906101c09190612551565b610658565b6040516101d291906125bf565b60405180910390f35b6101f560048036038101906101f09190612606565b61069e565b005b610211600480360381019061020c9190612646565b6107b6565b005b61022d60048036038101906102289190612699565b610816565b005b61024960048036038101906102449190612646565b61085a565b005b61026560048036038101906102609190612551565b61087a565b6040516102739291906126d5565b60405180910390f35b61029660048036038101906102919190612833565b6108ab565b6040516102a3919061288f565b60405180910390f35b6102c660048036038101906102c19190612551565b6109eb565b6040516102d391906125bf565b60405180910390f35b6102f660048036038101906102f191906128aa565b610a72565b005b610312600480360381019061030d9190612699565b610c19565b60405161031f919061288f565b60405180910390f35b610330610cd1565b60405161033d9190612a8a565b60405180910390f35b61034e610e38565b60405161035b91906124f9565b60405180910390f35b61036c610eca565b60405161037991906125bf565b60405180910390f35b61039c60048036038101906103979190612ad8565b610ef0565b005b6103b860048036038101906103b39190612551565b610f06565b6040516103c5919061288f565b60405180910390f35b6103e860048036038101906103e39190612bb9565b610f1e565b005b61040460048036038101906103ff91906128aa565b610f80565b005b610420600480360381019061041b9190612551565b6110b6565b60405161042d91906124f9565b60405180910390f35b610450600480360381019061044b9190612551565b6111c9565b60405161045d919061288f565b60405180910390f35b610480600480360381019061047b9190612551565b6111e9565b60405161048d9190612445565b60405180910390f35b6104b060048036038101906104ab9190612c3c565b611216565b6040516104bd9190612445565b60405180910390f35b6104ce6112aa565b6040516104db919061288f565b60405180910390f35b60007f80ac58cd000000000000000000000000000000000000000000000000000000007bffffffffffffffffffffffffffffffffffffffffffffffffffffffff1916827bffffffffffffffffffffffffffffffffffffffffffffffffffffffff191614806105af57507f5b5e139f000000000000000000000000000000000000000000000000000000007bffffffffffffffffffffffffffffffffffffffffffffffffffffffff1916827bffffffffffffffffffffffffffffffffffffffffffffffffffffffff1916145b806105bf57506105be8261135c565b5b9050919050565b6060600080546105d590612cab565b80601f016020809104026020016040519081016040528092919081815260200182805461060190612cab565b801561064e5780601f106106235761010080835404028352916020019161064e565b820191906000526020600020905b81548152906001019060200180831161063157829003601f168201915b5050505050905090565b6000610663826113c6565b6004600083815260200190815260200160002060009054906101000a900473ffffffffffffffffffffffffffffffffffffffff169050919050565b60006106a9826109eb565b90508073ffffffffffffffffffffffffffffffffffffffff168373ffffffffffffffffffffffffffffffffffffffff16141561071a576040517f08c379a000000000000000000000000000000000000000000000000000000000815260040161071190612d4f565b60405180910390fd5b8073ffffffffffffffffffffffffffffffffffffffff16610739611411565b73ffffffffffffffffffffffffffffffffffffffff161480610768575061076781610762611411565b611216565b5b6107a7576040517f08c379a000000000000000000000000000000000000000000000000000000000815260040161079e90612de1565b60405180910390fd5b6107b18383611419565b505050565b6107c76107c1611411565b826114d2565b610806576040517f08c379a00000000000000000000000000000000000000000000000000000000081526004016107fd90612e73565b60405180910390fd5b610811838383611567565b505050565b80600760006101000a81548173ffffffffffffffffffffffffffffffffffffffff021916908373ffffffffffffffffffffffffffffffffffffffff16021790555050565b61087583838360405180602001604052806000815250610f1e565b505050565b60096020528060005260406000206000915090508060000160009054906101000a900460ff16908060010154905082565b60006108b76008611861565b60006108c36008611877565b90506108cf3382611885565b6108d98185611aa3565b82600a600083815260200190815260200160002081905550600b60003373ffffffffffffffffffffffffffffffffffffffff1673ffffffffffffffffffffffffffffffffffffffff1681526020019081526020016000206040518060a00160405280838152602001868152602001858152602001600015158152602001600081525090806001815401808255809150506001900390600052602060002090600502016000909190919091506000820151816000015560208201518160010190805190602001906109aa9291906122ee565b506040820151816002015560608201518160030160006101000a81548160ff0219169083151502179055506080820151816004015550508091505092915050565b6000806109f783611b17565b9050600073ffffffffffffffffffffffffffffffffffffffff168173ffffffffffffffffffffffffffffffffffffffff161415610a69576040517f08c379a0000000000000000000000000000000000000000000000000000000008152600401610a6090612edf565b60405180910390fd5b80915050919050565b3373ffffffffffffffffffffffffffffffffffffffff16610a9283611b17565b73ffffffffffffffffffffffffffffffffffffffff1614610ae8576040517f08c379a0000000000000000000000000000000000000000000000000000000008152600401610adf90612f4b565b60405180910390fd5b6009600083815260200190815260200160002060000160009054906101000a900460ff16610b4b576040517f08c379a0000000000000000000000000000000000000000000000000000000008152600401610b4290612fb7565b60405180910390fd5b80600960008481526020019081526020016000206001015410610bc95780600960008481526020019081526020016000206001016000828254610b8e9190613006565b9250508190555060006009600084815260200190815260200160002060000160006101000a81548160ff021916908315150217905550610c15565b6000600960008481526020019081526020016000206001018190555060006009600084815260200190815260200160002060000160006101000a81548160ff0219169083151502179055505b5050565b60008073ffffffffffffffffffffffffffffffffffffffff168273ffffffffffffffffffffffffffffffffffffffff161415610c8a576040517f08c379a0000000000000000000000000000000000000000000000000000000008152600401610c81906130ac565b60405180910390fd5b600360008373ffffffffffffffffffffffffffffffffffffffff1673ffffffffffffffffffffffffffffffffffffffff168152602001908152602001600020549050919050565b6060600b60003373ffffffffffffffffffffffffffffffffffffffff1673ffffffffffffffffffffffffffffffffffffffff168152602001908152602001600020805480602002602001604051908101604052809291908181526020016000905b82821015610e2f57838290600052602060002090600502016040518060a001604052908160008201548152602001600182018054610d6f90612cab565b80601f0160208091040260200160405190810160405280929190818152602001828054610d9b90612cab565b8015610de85780601f10610dbd57610100808354040283529160200191610de8565b820191906000526020600020905b815481529060010190602001808311610dcb57829003601f168201915b50505050508152602001600282015481526020016003820160009054906101000a900460ff1615151515815260200160048201548152505081526020019060010190610d32565b50505050905090565b606060018054610e4790612cab565b80601f0160208091040260200160405190810160405280929190818152602001828054610e7390612cab565b8015610ec05780601f10610e9557610100808354040283529160200191610ec0565b820191906000526020600020905b815481529060010190602001808311610ea357829003601f168201915b5050505050905090565b600760009054906101000a900473ffffffffffffffffffffffffffffffffffffffff1681565b610f02610efb611411565b8383611b54565b5050565b600a6020528060005260406000206000915090505481565b610f2f610f29611411565b836114d2565b610f6e576040517f08c379a0000000000000000000000000000000000000000000000000000000008152600401610f6590612e73565b60405180910390fd5b610f7a84848484611cc1565b50505050565b3373ffffffffffffffffffffffffffffffffffffffff16610fa083611b17565b73ffffffffffffffffffffffffffffffffffffffff1614610ff6576040517f08c379a0000000000000000000000000000000000000000000000000000000008152600401610fed90612f4b565b60405180910390fd5b6009600083815260200190815260200160002060000160009054906101000a900460ff161561105a576040517f08c379a000000000000000000000000000000000000000000000000000000000815260040161105190613118565b60405180910390fd5b6040518060400160405280600115158152602001828152506009600084815260200190815260200160002060008201518160000160006101000a81548160ff021916908315150217905550602082015181600101559050505050565b60606110c1826113c6565b60006006600084815260200190815260200160002080546110e190612cab565b80601f016020809104026020016040519081016040528092919081815260200182805461110d90612cab565b801561115a5780601f1061112f5761010080835404028352916020019161115a565b820191906000526020600020905b81548152906001019060200180831161113d57829003601f168201915b50505050509050600061116b611d1d565b90506000815114156111815781925050506111c4565b6000825111156111b657808260405160200161119e929190613174565b604051602081830303815290604052925050506111c4565b6111bf84611d34565b925050505b919050565b600060096000838152602001908152602001600020600101549050919050565b60006009600083815260200190815260200160002060000160009054906101000a900460ff169050919050565b6000600560008473ffffffffffffffffffffffffffffffffffffffff1673ffffffffffffffffffffffffffffffffffffffff16815260200190815260200160002060008373ffffffffffffffffffffffffffffffffffffffff1673ffffffffffffffffffffffffffffffffffffffff16815260200190815260200160002060009054906101000a900460ff16905092915050565b6000600760009054906101000a900473ffffffffffffffffffffffffffffffffffffffff1673ffffffffffffffffffffffffffffffffffffffff166370a08231336040518263ffffffff1660e01b815260040161130791906125bf565b60206040518083038186803b15801561131f57600080fd5b505afa158015611333573d6000803e3d6000fd5b505050506040513d601f19601f8201168201806040525081019061135791906131ad565b905090565b60007f01ffc9a7000000000000000000000000000000000000000000000000000000007bffffffffffffffffffffffffffffffffffffffffffffffffffffffff1916827bffffffffffffffffffffffffffffffffffffffffffffffffffffffff1916149050919050565b6113cf81611d9c565b61140e576040517f08c379a000000000000000000000000000000000000000000000000000000000815260040161140590612edf565b60405180910390fd5b50565b600033905090565b816004600083815260200190815260200160002060006101000a81548173ffffffffffffffffffffffffffffffffffffffff021916908373ffffffffffffffffffffffffffffffffffffffff160217905550808273ffffffffffffffffffffffffffffffffffffffff1661148c836109eb565b73ffffffffffffffffffffffffffffffffffffffff167f8c5be1e5ebec7d5bd14f71427d1e84f3dd0314c0f7b2291e5b200ac8c7c3b92560405160405180910390a45050565b6000806114de836109eb565b90508073ffffffffffffffffffffffffffffffffffffffff168473ffffffffffffffffffffffffffffffffffffffff161480611520575061151f8185611216565b5b8061155e57508373ffffffffffffffffffffffffffffffffffffffff1661154684610658565b73ffffffffffffffffffffffffffffffffffffffff16145b91505092915050565b8273ffffffffffffffffffffffffffffffffffffffff16611587826109eb565b73ffffffffffffffffffffffffffffffffffffffff16146115dd576040517f08c379a00000000000000000000000000000000000000000000000000000000081526004016115d49061324c565b60405180910390fd5b600073ffffffffffffffffffffffffffffffffffffffff168273ffffffffffffffffffffffffffffffffffffffff16141561164d576040517f08c379a0000000000000000000000000000000000000000000000000000000008152600401611644906132de565b60405180910390fd5b61165a8383836001611ddd565b8273ffffffffffffffffffffffffffffffffffffffff1661167a826109eb565b73ffffffffffffffffffffffffffffffffffffffff16146116d0576040517f08c379a00000000000000000000000000000000000000000000000000000000081526004016116c79061324c565b60405180910390fd5b6004600082815260200190815260200160002060006101000a81549073ffffffffffffffffffffffffffffffffffffffff02191690556001600360008573ffffffffffffffffffffffffffffffffffffffff1673ffffffffffffffffffffffffffffffffffffffff168152602001908152602001600020600082825403925050819055506001600360008473ffffffffffffffffffffffffffffffffffffffff1673ffffffffffffffffffffffffffffffffffffffff16815260200190815260200160002060008282540192505081905550816002600083815260200190815260200160002060006101000a81548173ffffffffffffffffffffffffffffffffffffffff021916908373ffffffffffffffffffffffffffffffffffffffff160217905550808273ffffffffffffffffffffffffffffffffffffffff168473ffffffffffffffffffffffffffffffffffffffff167fddf252ad1be2c89b69c2b068fc378daa952ba7f163c4a11628f55a4df523b3ef60405160405180910390a461185c8383836001611f03565b505050565b6001816000016000828254019250508190555050565b600081600001549050919050565b600073ffffffffffffffffffffffffffffffffffffffff168273ffffffffffffffffffffffffffffffffffffffff1614156118f5576040517f08c379a00000000000000000000000000000000000000000000000000000000081526004016118ec9061334a565b60405180910390fd5b6118fe81611d9c565b1561193e576040517f08c379a0000000000000000000000000000000000000000000000000000000008152600401611935906133b6565b60405180910390fd5b61194c600083836001611ddd565b61195581611d9c565b15611995576040517f08c379a000000000000000000000000000000000000000000000000000000000815260040161198c906133b6565b60405180910390fd5b6001600360008473ffffffffffffffffffffffffffffffffffffffff1673ffffffffffffffffffffffffffffffffffffffff16815260200190815260200160002060008282540192505081905550816002600083815260200190815260200160002060006101000a81548173ffffffffffffffffffffffffffffffffffffffff021916908373ffffffffffffffffffffffffffffffffffffffff160217905550808273ffffffffffffffffffffffffffffffffffffffff16600073ffffffffffffffffffffffffffffffffffffffff167fddf252ad1be2c89b69c2b068fc378daa952ba7f163c4a11628f55a4df523b3ef60405160405180910390a4611a9f600083836001611f03565b5050565b611aac82611d9c565b611aeb576040517f08c379a0000000000000000000000000000000000000000000000000000000008152600401611ae290613448565b60405180910390fd5b80600660008481526020019081526020016000209080519060200190611b129291906122ee565b505050565b60006002600083815260200190815260200160002060009054906101000a900473ffffffffffffffffffffffffffffffffffffffff169050919050565b8173ffffffffffffffffffffffffffffffffffffffff168373ffffffffffffffffffffffffffffffffffffffff161415611bc3576040517f08c379a0000000000000000000000000000000000000000000000000000000008152600401611bba906134b4565b60405180910390fd5b80600560008573ffffffffffffffffffffffffffffffffffffffff1673ffffffffffffffffffffffffffffffffffffffff16815260200190815260200160002060008473ffffffffffffffffffffffffffffffffffffffff1673ffffffffffffffffffffffffffffffffffffffff16815260200190815260200160002060006101000a81548160ff0219169083151502179055508173ffffffffffffffffffffffffffffffffffffffff168373ffffffffffffffffffffffffffffffffffffffff167f17307eab39ab6107e8899845ad3d59bd9653f200f220920489ca2b5937696c3183604051611cb49190612445565b60405180910390a3505050565b611ccc848484611567565b611cd884848484611f09565b611d17576040517f08c379a0000000000000000000000000000000000000000000000000000000008152600401611d0e90613546565b60405180910390fd5b50505050565b606060405180602001604052806000815250905090565b6060611d3f826113c6565b6000611d49611d1d565b90506000815111611d695760405180602001604052806000815250611d94565b80611d73846120a0565b604051602001611d84929190613174565b6040516020818303038152906040525b915050919050565b60008073ffffffffffffffffffffffffffffffffffffffff16611dbe83611b17565b73ffffffffffffffffffffffffffffffffffffffff1614159050919050565b6001811115611efd57600073ffffffffffffffffffffffffffffffffffffffff168473ffffffffffffffffffffffffffffffffffffffff1614611e715780600360008673ffffffffffffffffffffffffffffffffffffffff1673ffffffffffffffffffffffffffffffffffffffff1681526020019081526020016000206000828254611e699190613006565b925050819055505b600073ffffffffffffffffffffffffffffffffffffffff168373ffffffffffffffffffffffffffffffffffffffff1614611efc5780600360008573ffffffffffffffffffffffffffffffffffffffff1673ffffffffffffffffffffffffffffffffffffffff1681526020019081526020016000206000828254611ef49190613566565b925050819055505b5b50505050565b50505050565b6000611f2a8473ffffffffffffffffffffffffffffffffffffffff16612178565b15612093578373ffffffffffffffffffffffffffffffffffffffff1663150b7a02611f53611411565b8786866040518563ffffffff1660e01b8152600401611f759493929190613611565b602060405180830381600087803b158015611f8f57600080fd5b505af1925050508015611fc057506040513d601f19601f82011682018060405250810190611fbd9190613672565b60015b612043573d8060008114611ff0576040519150601f19603f3d011682016040523d82523d6000602084013e611ff5565b606091505b5060008151141561203b576040517f08c379a000000000000000000000000000000000000000000000000000000000815260040161203290613546565b60405180910390fd5b805181602001fd5b63150b7a0260e01b7bffffffffffffffffffffffffffffffffffffffffffffffffffffffff1916817bffffffffffffffffffffffffffffffffffffffffffffffffffffffff191614915050612098565b600190505b949350505050565b6060600060016120af8461219b565b01905060008167ffffffffffffffff8111156120ce576120cd612708565b5b6040519080825280601f01601f1916602001820160405280156121005781602001600182028036833780820191505090505b509050600082602001820190505b60011561216d578080600190039150507f3031323334353637383961626364656600000000000000000000000000000000600a86061a8153600a85816121575761215661369f565b5b04945060008514156121685761216d565b61210e565b819350505050919050565b6000808273ffffffffffffffffffffffffffffffffffffffff163b119050919050565b600080600090507a184f03e93ff9f4daa797ed6e38ed64bf6a1f01000000000000000083106121f9577a184f03e93ff9f4daa797ed6e38ed64bf6a1f01000000000000000083816121ef576121ee61369f565b5b0492506040810190505b6d04ee2d6d415b85acef81000000008310612236576d04ee2d6d415b85acef8100000000838161222c5761222b61369f565b5b0492506020810190505b662386f26fc10000831061226557662386f26fc10000838161225b5761225a61369f565b5b0492506010810190505b6305f5e100831061228e576305f5e10083816122845761228361369f565b5b0492506008810190505b61271083106122b35761271083816122a9576122a861369f565b5b0492506004810190505b606483106122d657606483816122cc576122cb61369f565b5b0492506002810190505b600a83106122e5576001810190505b80915050919050565b8280546122fa90612cab565b90600052602060002090601f01602090048101928261231c5760008555612363565b82601f1061233557805160ff1916838001178555612363565b82800160010185558215612363579182015b82811115612362578251825591602001919060010190612347565b5b5090506123709190612374565b5090565b5b8082111561238d576000816000905550600101612375565b5090565b6000604051905090565b600080fd5b600080fd5b60007fffffffff0000000000000000000000000000000000000000000000000000000082169050919050565b6123da816123a5565b81146123e557600080fd5b50565b6000813590506123f7816123d1565b92915050565b6000602082840312156124135761241261239b565b5b6000612421848285016123e8565b91505092915050565b60008115159050919050565b61243f8161242a565b82525050565b600060208201905061245a6000830184612436565b92915050565b600081519050919050565b600082825260208201905092915050565b60005b8381101561249a57808201518184015260208101905061247f565b838111156124a9576000848401525b50505050565b6000601f19601f8301169050919050565b60006124cb82612460565b6124d5818561246b565b93506124e581856020860161247c565b6124ee816124af565b840191505092915050565b6000602082019050818103600083015261251381846124c0565b905092915050565b6000819050919050565b61252e8161251b565b811461253957600080fd5b50565b60008135905061254b81612525565b92915050565b6000602082840312156125675761256661239b565b5b60006125758482850161253c565b91505092915050565b600073ffffffffffffffffffffffffffffffffffffffff82169050919050565b60006125a98261257e565b9050919050565b6125b98161259e565b82525050565b60006020820190506125d460008301846125b0565b92915050565b6125e38161259e565b81146125ee57600080fd5b50565b600081359050612600816125da565b92915050565b6000806040838503121561261d5761261c61239b565b5b600061262b858286016125f1565b925050602061263c8582860161253c565b9150509250929050565b60008060006060848603121561265f5761265e61239b565b5b600061266d868287016125f1565b935050602061267e868287016125f1565b925050604061268f8682870161253c565b9150509250925092565b6000602082840312156126af576126ae61239b565b5b60006126bd848285016125f1565b91505092915050565b6126cf8161251b565b82525050565b60006040820190506126ea6000830185612436565b6126f760208301846126c6565b9392505050565b600080fd5b600080fd5b7f4e487b7100000000000000000000000000000000000000000000000000000000600052604160045260246000fd5b612740826124af565b810181811067ffffffffffffffff8211171561275f5761275e612708565b5b80604052505050565b6000612772612391565b905061277e8282612737565b919050565b600067ffffffffffffffff82111561279e5761279d612708565b5b6127a7826124af565b9050602081019050919050565b82818337600083830152505050565b60006127d66127d184612783565b612768565b9050828152602081018484840111156127f2576127f1612703565b5b6127fd8482856127b4565b509392505050565b600082601f83011261281a576128196126fe565b5b813561282a8482602086016127c3565b91505092915050565b6000806040838503121561284a5761284961239b565b5b600083013567ffffffffffffffff811115612868576128676123a0565b5b61287485828601612805565b92505060206128858582860161253c565b9150509250929050565b60006020820190506128a460008301846126c6565b92915050565b600080604083850312156128c1576128c061239b565b5b60006128cf8582860161253c565b92505060206128e08582860161253c565b9150509250929050565b600081519050919050565b600082825260208201905092915050565b6000819050602082019050919050565b61291f8161251b565b82525050565b600082825260208201905092915050565b600061294182612460565b61294b8185612925565b935061295b81856020860161247c565b612964816124af565b840191505092915050565b6129788161242a565b82525050565b600060a0830160008301516129966000860182612916565b50602083015184820360208601526129ae8282612936565b91505060408301516129c36040860182612916565b5060608301516129d6606086018261296f565b5060808301516129e96080860182612916565b508091505092915050565b6000612a00838361297e565b905092915050565b6000602082019050919050565b6000612a20826128ea565b612a2a81856128f5565b935083602082028501612a3c85612906565b8060005b85811015612a785784840389528151612a5985826129f4565b9450612a6483612a08565b925060208a01995050600181019050612a40565b50829750879550505050505092915050565b60006020820190508181036000830152612aa48184612a15565b905092915050565b612ab58161242a565b8114612ac057600080fd5b50565b600081359050612ad281612aac565b92915050565b60008060408385031215612aef57612aee61239b565b5b6000612afd858286016125f1565b9250506020612b0e85828601612ac3565b9150509250929050565b600067ffffffffffffffff821115612b3357612b32612708565b5b612b3c826124af565b9050602081019050919050565b6000612b5c612b5784612b18565b612768565b905082815260208101848484011115612b7857612b77612703565b5b612b838482856127b4565b509392505050565b600082601f830112612ba057612b9f6126fe565b5b8135612bb0848260208601612b49565b91505092915050565b60008060008060808587031215612bd357612bd261239b565b5b6000612be1878288016125f1565b9450506020612bf2878288016125f1565b9350506040612c038782880161253c565b925050606085013567ffffffffffffffff811115612c2457612c236123a0565b5b612c3087828801612b8b565b91505092959194509250565b60008060408385031215612c5357612c5261239b565b5b6000612c61858286016125f1565b9250506020612c72858286016125f1565b9150509250929050565b7f4e487b7100000000000000000000000000000000000000000000000000000000600052602260045260246000fd5b60006002820490506001821680612cc357607f821691505b60208210811415612cd757612cd6612c7c565b5b50919050565b7f4552433732313a20617070726f76616c20746f2063757272656e74206f776e6560008201527f7200000000000000000000000000000000000000000000000000000000000000602082015250565b6000612d3960218361246b565b9150612d4482612cdd565b604082019050919050565b60006020820190508181036000830152612d6881612d2c565b9050919050565b7f4552433732313a20617070726f76652063616c6c6572206973206e6f7420746f60008201527f6b656e206f776e6572206f7220617070726f76656420666f7220616c6c000000602082015250565b6000612dcb603d8361246b565b9150612dd682612d6f565b604082019050919050565b60006020820190508181036000830152612dfa81612dbe565b9050919050565b7f4552433732313a2063616c6c6572206973206e6f7420746f6b656e206f776e6560008201527f72206f7220617070726f76656400000000000000000000000000000000000000602082015250565b6000612e5d602d8361246b565b9150612e6882612e01565b604082019050919050565b60006020820190508181036000830152612e8c81612e50565b9050919050565b7f4552433732313a20696e76616c696420746f6b656e2049440000000000000000600082015250565b6000612ec960188361246b565b9150612ed482612e93565b602082019050919050565b60006020820190508181036000830152612ef881612ebc565b9050919050565b7f796f7520646f206e6f74206f776e2074686973206e6674000000000000000000600082015250565b6000612f3560178361246b565b9150612f4082612eff565b602082019050919050565b60006020820190508181036000830152612f6481612f28565b9050919050565b7f6e6f7420626f72726f7765640000000000000000000000000000000000000000600082015250565b6000612fa1600c8361246b565b9150612fac82612f6b565b602082019050919050565b60006020820190508181036000830152612fd081612f94565b9050919050565b7f4e487b7100000000000000000000000000000000000000000000000000000000600052601160045260246000fd5b60006130118261251b565b915061301c8361251b565b92508282101561302f5761302e612fd7565b5b828203905092915050565b7f4552433732313a2061646472657373207a65726f206973206e6f74206120766160008201527f6c6964206f776e65720000000000000000000000000000000000000000000000602082015250565b600061309660298361246b565b91506130a18261303a565b604082019050919050565b600060208201905081810360008301526130c581613089565b9050919050565b7f616c726561647920626f72726f77656400000000000000000000000000000000600082015250565b600061310260108361246b565b915061310d826130cc565b602082019050919050565b60006020820190508181036000830152613131816130f5565b9050919050565b600081905092915050565b600061314e82612460565b6131588185613138565b935061316881856020860161247c565b80840191505092915050565b60006131808285613143565b915061318c8284613143565b91508190509392505050565b6000815190506131a781612525565b92915050565b6000602082840312156131c3576131c261239b565b5b60006131d184828501613198565b91505092915050565b7f4552433732313a207472616e736665722066726f6d20696e636f72726563742060008201527f6f776e6572000000000000000000000000000000000000000000000000000000602082015250565b600061323660258361246b565b9150613241826131da565b604082019050919050565b6000602082019050818103600083015261326581613229565b9050919050565b7f4552433732313a207472616e7366657220746f20746865207a65726f2061646460008201527f7265737300000000000000000000000000000000000000000000000000000000602082015250565b60006132c860248361246b565b91506132d38261326c565b604082019050919050565b600060208201905081810360008301526132f7816132bb565b9050919050565b7f4552433732313a206d696e7420746f20746865207a65726f2061646472657373600082015250565b600061333460208361246b565b915061333f826132fe565b602082019050919050565b6000602082019050818103600083015261336381613327565b9050919050565b7f4552433732313a20746f6b656e20616c7265616479206d696e74656400000000600082015250565b60006133a0601c8361246b565b91506133ab8261336a565b602082019050919050565b600060208201905081810360008301526133cf81613393565b9050919050565b7f45524337323155524953746f726167653a2055524920736574206f66206e6f6e60008201527f6578697374656e7420746f6b656e000000000000000000000000000000000000602082015250565b6000613432602e8361246b565b915061343d826133d6565b604082019050919050565b6000602082019050818103600083015261346181613425565b9050919050565b7f4552433732313a20617070726f766520746f2063616c6c657200000000000000600082015250565b600061349e60198361246b565b91506134a982613468565b602082019050919050565b600060208201905081810360008301526134cd81613491565b9050919050565b7f4552433732313a207472616e7366657220746f206e6f6e20455243373231526560008201527f63656976657220696d706c656d656e7465720000000000000000000000000000602082015250565b600061353060328361246b565b915061353b826134d4565b604082019050919050565b6000602082019050818103600083015261355f81613523565b9050919050565b60006135718261251b565b915061357c8361251b565b9250827fffffffffffffffffffffffffffffffffffffffffffffffffffffffffffffffff038211156135b1576135b0612fd7565b5b828201905092915050565b600081519050919050565b600082825260208201905092915050565b60006135e3826135bc565b6135ed81856135c7565b93506135fd81856020860161247c565b613606816124af565b840191505092915050565b600060808201905061362660008301876125b0565b61363360208301866125b0565b61364060408301856126c6565b818103606083015261365281846135d8565b905095945050505050565b60008151905061366c816123d1565b92915050565b6000602082840312156136885761368761239b565b5b60006136968482850161365d565b91505092915050565b7f4e487b7100000000000000000000000000000000000000000000000000000000600052601260045260246000fdfea2646970667358221220b9d43160a0973f29c4b83751ff1dc02b3aef8ab7a5b01fed493e380460b1aca264736f6c63430008090033",
  "linkReferences": {},
  "deployedLinkReferences": {}
}