{
  "_format": "hh-sol-artifact-1",
  "contractName": "cryptokids",
  "sourceName": "contracts/Parentbank.sol",
  "abi": [
    {
      "inputs": [],
      "stateMutability": "nonpayable",
      "type": "constructor"
    },
    {
      "inputs": [],
      "name": "balance",
      "outputs": [
        {
          "internalType": "uint256",
          "name": "",
          "type": "uint256"
        }
      ],
      "stateMutability": "view",
      "type": "function"
    },
    {
      "inputs": [
        {
          "internalType": "address",
          "name": "addr",
          "type": "address"
        },
        {
          "internalType": "string",
          "name": "_fname",
          "type": "string"
        },
        {
          "internalType": "string",
          "name": "_name",
          "type": "string"
        },
        {
          "internalType": "uint256",
          "name": "_time",
          "type": "uint256"
        }
      ],
      "name": "deposit",
      "outputs": [],
      "stateMutability": "payable",
      "type": "function"
    },
    {
      "inputs": [],
      "name": "getOwner",
      "outputs": [
        {
          "internalType": "address",
          "name": "",
          "type": "address"
        }
      ],
      "stateMutability": "view",
      "type": "function"
    },
    {
      "inputs": [],
      "name": "getProfile",
      "outputs": [
        {
          "components": [
            {
              "internalType": "string",
              "name": "fname",
              "type": "string"
            },
            {
              "internalType": "string",
              "name": "lname",
              "type": "string"
            },
            {
              "internalType": "uint256",
              "name": "amount",
              "type": "uint256"
            },
            {
              "internalType": "uint256",
              "name": "timestamp",
              "type": "uint256"
            },
            {
              "internalType": "address",
              "name": "addr",
              "type": "address"
            }
          ],
          "internalType": "struct cryptokids.kids",
          "name": "",
          "type": "tuple"
        }
      ],
      "stateMutability": "view",
      "type": "function"
    },
    {
      "inputs": [],
      "name": "getTotalAmount",
      "outputs": [
        {
          "internalType": "uint256",
          "name": "",
          "type": "uint256"
        }
      ],
      "stateMutability": "view",
      "type": "function"
    },
    {
      "inputs": [],
      "name": "isAdmin",
      "outputs": [
        {
          "internalType": "string",
          "name": "",
          "type": "string"
        }
      ],
      "stateMutability": "view",
      "type": "function"
    },
    {
      "inputs": [
        {
          "internalType": "address",
          "name": "",
          "type": "address"
        }
      ],
      "name": "kidsdetails",
      "outputs": [
        {
          "internalType": "string",
          "name": "fname",
          "type": "string"
        },
        {
          "internalType": "string",
          "name": "lname",
          "type": "string"
        },
        {
          "internalType": "uint256",
          "name": "amount",
          "type": "uint256"
        },
        {
          "internalType": "uint256",
          "name": "timestamp",
          "type": "uint256"
        },
        {
          "internalType": "address",
          "name": "addr",
          "type": "address"
        }
      ],
      "stateMutability": "view",
      "type": "function"
    },
    {
      "inputs": [],
      "name": "owner",
      "outputs": [
        {
          "internalType": "address",
          "name": "",
          "type": "address"
        }
      ],
      "stateMutability": "view",
      "type": "function"
    },
    {
      "inputs": [
        {
          "internalType": "uint256",
          "name": "_amount",
          "type": "uint256"
        }
      ],
      "name": "widthraw",
      "outputs": [],
      "stateMutability": "nonpayable",
      "type": "function"
    }
  ],
  "bytecode": "0x608060405234801561001057600080fd5b50336000806101000a81548173ffffffffffffffffffffffffffffffffffffffff021916908373ffffffffffffffffffffffffffffffffffffffff160217905550611363806100606000396000f3fe6080604052600436106100865760003560e01c80638da5cb5b116100595780638da5cb5b1461014b578063b69ef8a814610176578063b6db75a0146101a1578063d6afc9b1146101cc578063e441dec9146101f757610086565b806329452c221461008b57806365ac4341146100cc57806365f0155d146100f7578063893d20e814610120575b600080fd5b34801561009757600080fd5b506100b260048036038101906100ad9190610c60565b610213565b6040516100c3959493929190610d4e565b60405180910390f35b3480156100d857600080fd5b506100e1610379565b6040516100ee9190610daf565b60405180910390f35b34801561010357600080fd5b5061011e60048036038101906101199190610df6565b610381565b005b34801561012c57600080fd5b50610135610562565b6040516101429190610e23565b60405180910390f35b34801561015757600080fd5b5061016061058b565b60405161016d9190610e23565b60405180910390f35b34801561018257600080fd5b5061018b6105af565b6040516101989190610daf565b60405180910390f35b3480156101ad57600080fd5b506101b66105f9565b6040516101c39190610e3e565b60405180910390f35b3480156101d857600080fd5b506101e16106c8565b6040516101ee9190610f45565b60405180910390f35b610211600480360381019061020c919061109c565b6108ad565b005b60016020528060005260406000206000915090508060000180546102369061116a565b80601f01602080910402602001604051908101604052809291908181526020018280546102629061116a565b80156102af5780601f10610284576101008083540402835291602001916102af565b820191906000526020600020905b81548152906001019060200180831161029257829003601f168201915b5050505050908060010180546102c49061116a565b80601f01602080910402602001604051908101604052809291908181526020018280546102f09061116a565b801561033d5780601f106103125761010080835404028352916020019161033d565b820191906000526020600020905b81548152906001019060200180831161032057829003601f168201915b5050505050908060020154908060030154908060040160009054906101000a900473ffffffffffffffffffffffffffffffffffffffff16905085565b600047905090565b80600160003373ffffffffffffffffffffffffffffffffffffffff1673ffffffffffffffffffffffffffffffffffffffff168152602001908152602001600020600201541015610406576040517f08c379a00000000000000000000000000000000000000000000000000000000081526004016103fd906111e8565b60405180910390fd5b6000600160003373ffffffffffffffffffffffffffffffffffffffff1673ffffffffffffffffffffffffffffffffffffffff1681526020019081526020016000206003015490508042111561055e5781600160003373ffffffffffffffffffffffffffffffffffffffff1673ffffffffffffffffffffffffffffffffffffffff16815260200190815260200160002060020160008282546104a79190611237565b925050819055506000600160003373ffffffffffffffffffffffffffffffffffffffff1673ffffffffffffffffffffffffffffffffffffffff16815260200190815260200160002060040160009054906101000a900473ffffffffffffffffffffffffffffffffffffffff1690508073ffffffffffffffffffffffffffffffffffffffff166108fc849081150290604051600060405180830381858888f1935050505015801561055b573d6000803e3d6000fd5b50505b5050565b60008060009054906101000a900473ffffffffffffffffffffffffffffffffffffffff16905090565b60008054906101000a900473ffffffffffffffffffffffffffffffffffffffff1681565b6000600160003373ffffffffffffffffffffffffffffffffffffffff1673ffffffffffffffffffffffffffffffffffffffff16815260200190815260200160002060020154905090565b60603373ffffffffffffffffffffffffffffffffffffffff1660008054906101000a900473ffffffffffffffffffffffffffffffffffffffff1673ffffffffffffffffffffffffffffffffffffffff16141561068c576040518060400160405280600581526020017f41646d696e00000000000000000000000000000000000000000000000000000081525090506106c5565b6040518060400160405280600681526020017f636c69656e74000000000000000000000000000000000000000000000000000081525090505b90565b6106d0610b06565b600160003373ffffffffffffffffffffffffffffffffffffffff1673ffffffffffffffffffffffffffffffffffffffff1681526020019081526020016000206040518060a001604052908160008201805461072a9061116a565b80601f01602080910402602001604051908101604052809291908181526020018280546107569061116a565b80156107a35780601f10610778576101008083540402835291602001916107a3565b820191906000526020600020905b81548152906001019060200180831161078657829003601f168201915b505050505081526020016001820180546107bc9061116a565b80601f01602080910402602001604051908101604052809291908181526020018280546107e89061116a565b80156108355780601f1061080a57610100808354040283529160200191610835565b820191906000526020600020905b81548152906001019060200180831161081857829003601f168201915b5050505050815260200160028201548152602001600382015481526020016004820160009054906101000a900473ffffffffffffffffffffffffffffffffffffffff1673ffffffffffffffffffffffffffffffffffffffff1673ffffffffffffffffffffffffffffffffffffffff1681525050905090565b6658d15e176280003410156108f7576040517f08c379a00000000000000000000000000000000000000000000000000000000081526004016108ee906112b7565b60405180910390fd5b8373ffffffffffffffffffffffffffffffffffffffff16600160008673ffffffffffffffffffffffffffffffffffffffff1673ffffffffffffffffffffffffffffffffffffffff16815260200190815260200160002060040160009054906101000a900473ffffffffffffffffffffffffffffffffffffffff1673ffffffffffffffffffffffffffffffffffffffff1614156109eb5734600160008673ffffffffffffffffffffffffffffffffffffffff1673ffffffffffffffffffffffffffffffffffffffff16815260200190815260200160002060020160008282546109df91906112d7565b92505081905550610b00565b6040518060a001604052808481526020018381526020013481526020018281526020018573ffffffffffffffffffffffffffffffffffffffff16815250600160008673ffffffffffffffffffffffffffffffffffffffff1673ffffffffffffffffffffffffffffffffffffffff1681526020019081526020016000206000820151816000019080519060200190610a83929190610b4b565b506020820151816001019080519060200190610aa0929190610b4b565b50604082015181600201556060820151816003015560808201518160040160006101000a81548173ffffffffffffffffffffffffffffffffffffffff021916908373ffffffffffffffffffffffffffffffffffffffff1602179055509050505b50505050565b6040518060a0016040528060608152602001606081526020016000815260200160008152602001600073ffffffffffffffffffffffffffffffffffffffff1681525090565b828054610b579061116a565b90600052602060002090601f016020900481019282610b795760008555610bc0565b82601f10610b9257805160ff1916838001178555610bc0565b82800160010185558215610bc0579182015b82811115610bbf578251825591602001919060010190610ba4565b5b509050610bcd9190610bd1565b5090565b5b80821115610bea576000816000905550600101610bd2565b5090565b6000604051905090565b600080fd5b600080fd5b600073ffffffffffffffffffffffffffffffffffffffff82169050919050565b6000610c2d82610c02565b9050919050565b610c3d81610c22565b8114610c4857600080fd5b50565b600081359050610c5a81610c34565b92915050565b600060208284031215610c7657610c75610bf8565b5b6000610c8484828501610c4b565b91505092915050565b600081519050919050565b600082825260208201905092915050565b60005b83811015610cc7578082015181840152602081019050610cac565b83811115610cd6576000848401525b50505050565b6000601f19601f8301169050919050565b6000610cf882610c8d565b610d028185610c98565b9350610d12818560208601610ca9565b610d1b81610cdc565b840191505092915050565b6000819050919050565b610d3981610d26565b82525050565b610d4881610c22565b82525050565b600060a0820190508181036000830152610d688188610ced565b90508181036020830152610d7c8187610ced565b9050610d8b6040830186610d30565b610d986060830185610d30565b610da56080830184610d3f565b9695505050505050565b6000602082019050610dc46000830184610d30565b92915050565b610dd381610d26565b8114610dde57600080fd5b50565b600081359050610df081610dca565b92915050565b600060208284031215610e0c57610e0b610bf8565b5b6000610e1a84828501610de1565b91505092915050565b6000602082019050610e386000830184610d3f565b92915050565b60006020820190508181036000830152610e588184610ced565b905092915050565b600082825260208201905092915050565b6000610e7c82610c8d565b610e868185610e60565b9350610e96818560208601610ca9565b610e9f81610cdc565b840191505092915050565b610eb381610d26565b82525050565b610ec281610c22565b82525050565b600060a0830160008301518482036000860152610ee58282610e71565b91505060208301518482036020860152610eff8282610e71565b9150506040830151610f146040860182610eaa565b506060830151610f276060860182610eaa565b506080830151610f3a6080860182610eb9565b508091505092915050565b60006020820190508181036000830152610f5f8184610ec8565b905092915050565b600080fd5b600080fd5b7f4e487b7100000000000000000000000000000000000000000000000000000000600052604160045260246000fd5b610fa982610cdc565b810181811067ffffffffffffffff82111715610fc857610fc7610f71565b5b80604052505050565b6000610fdb610bee565b9050610fe78282610fa0565b919050565b600067ffffffffffffffff82111561100757611006610f71565b5b61101082610cdc565b9050602081019050919050565b82818337600083830152505050565b600061103f61103a84610fec565b610fd1565b90508281526020810184848401111561105b5761105a610f6c565b5b61106684828561101d565b509392505050565b600082601f83011261108357611082610f67565b5b813561109384826020860161102c565b91505092915050565b600080600080608085870312156110b6576110b5610bf8565b5b60006110c487828801610c4b565b945050602085013567ffffffffffffffff8111156110e5576110e4610bfd565b5b6110f18782880161106e565b935050604085013567ffffffffffffffff81111561111257611111610bfd565b5b61111e8782880161106e565b925050606061112f87828801610de1565b91505092959194509250565b7f4e487b7100000000000000000000000000000000000000000000000000000000600052602260045260246000fd5b6000600282049050600182168061118257607f821691505b602082108114156111965761119561113b565b5b50919050565b7f6e6f7420656e6f75676800000000000000000000000000000000000000000000600082015250565b60006111d2600a83610c98565b91506111dd8261119c565b602082019050919050565b60006020820190508181036000830152611201816111c5565b9050919050565b7f4e487b7100000000000000000000000000000000000000000000000000000000600052601160045260246000fd5b600061124282610d26565b915061124d83610d26565b9250828210156112605761125f611208565b5b828203905092915050565b7f7061792076616c756520616d6f756e7400000000000000000000000000000000600082015250565b60006112a1601083610c98565b91506112ac8261126b565b602082019050919050565b600060208201905081810360008301526112d081611294565b9050919050565b60006112e282610d26565b91506112ed83610d26565b9250827fffffffffffffffffffffffffffffffffffffffffffffffffffffffffffffffff0382111561132257611321611208565b5b82820190509291505056fea2646970667358221220ad1f54667507a24693d4e8094f7498bd7ba8d217793a20c18719fbef9af6529864736f6c63430008090033",
  "linkReferences": {},
  "deployedLinkReferences": {}
}