{
  "_format": "hh-sol-artifact-1",
  "contractName": "TestToken",
  "sourceName": "contracts/TestToken.sol",
  "abi": [
    {
      "inputs": [
        {
          "internalType": "uint256",
          "name": "initialSupply",
          "type": "uint256"
        }
      ],
      "stateMutability": "nonpayable",
      "type": "constructor"
    },
    {
      "anonymous": false,
      "inputs": [
        {
          "indexed": true,
          "internalType": "address",
          "name": "owner",
          "type": "address"
        },
        {
          "indexed": true,
          "internalType": "address",
          "name": "spender",
          "type": "address"
        },
        {
          "indexed": false,
          "internalType": "uint256",
          "name": "value",
          "type": "uint256"
        }
      ],
      "name": "Approval",
      "type": "event"
    },
    {
      "anonymous": false,
      "inputs": [
        {
          "indexed": true,
          "internalType": "address",
          "name": "from",
          "type": "address"
        },
        {
          "indexed": true,
          "internalType": "address",
          "name": "to",
          "type": "address"
        },
        {
          "indexed": false,
          "internalType": "uint256",
          "name": "value",
          "type": "uint256"
        }
      ],
      "name": "Transfer",
      "type": "event"
    },
    {
      "inputs": [
        {
          "internalType": "address",
          "name": "owner",
          "type": "address"
        },
        {
          "internalType": "address",
          "name": "spender",
          "type": "address"
        }
      ],
      "name": "allowance",
      "outputs": [
        {
          "internalType": "uint256",
          "name": "",
          "type": "uint256"
        }
      ],
      "stateMutability": "view",
      "type": "function"
    },
    {
      "inputs": [
        {
          "internalType": "address",
          "name": "spender",
          "type": "address"
        },
        {
          "internalType": "uint256",
          "name": "amount",
          "type": "uint256"
        }
      ],
      "name": "approve",
      "outputs": [
        {
          "internalType": "bool",
          "name": "",
          "type": "bool"
        }
      ],
      "stateMutability": "nonpayable",
      "type": "function"
    },
    {
      "inputs": [
        {
          "internalType": "address",
          "name": "_address",
          "type": "address"
        }
      ],
      "name": "approveTokensForTransfer",
      "outputs": [],
      "stateMutability": "nonpayable",
      "type": "function"
    },
    {
      "inputs": [
        {
          "internalType": "address",
          "name": "account",
          "type": "address"
        }
      ],
      "name": "balanceOf",
      "outputs": [
        {
          "internalType": "uint256",
          "name": "",
          "type": "uint256"
        }
      ],
      "stateMutability": "view",
      "type": "function"
    },
    {
      "inputs": [
        {
          "internalType": "address",
          "name": "_address",
          "type": "address"
        },
        {
          "internalType": "uint256",
          "name": "amount",
          "type": "uint256"
        }
      ],
      "name": "burn",
      "outputs": [],
      "stateMutability": "nonpayable",
      "type": "function"
    },
    {
      "inputs": [],
      "name": "decimals",
      "outputs": [
        {
          "internalType": "uint8",
          "name": "",
          "type": "uint8"
        }
      ],
      "stateMutability": "view",
      "type": "function"
    },
    {
      "inputs": [
        {
          "internalType": "address",
          "name": "spender",
          "type": "address"
        },
        {
          "internalType": "uint256",
          "name": "subtractedValue",
          "type": "uint256"
        }
      ],
      "name": "decreaseAllowance",
      "outputs": [
        {
          "internalType": "bool",
          "name": "",
          "type": "bool"
        }
      ],
      "stateMutability": "nonpayable",
      "type": "function"
    },
    {
      "inputs": [
        {
          "internalType": "address",
          "name": "spender",
          "type": "address"
        },
        {
          "internalType": "uint256",
          "name": "addedValue",
          "type": "uint256"
        }
      ],
      "name": "increaseAllowance",
      "outputs": [
        {
          "internalType": "bool",
          "name": "",
          "type": "bool"
        }
      ],
      "stateMutability": "nonpayable",
      "type": "function"
    },
    {
      "inputs": [
        {
          "internalType": "address",
          "name": "_address",
          "type": "address"
        },
        {
          "internalType": "uint256",
          "name": "amount",
          "type": "uint256"
        }
      ],
      "name": "mint",
      "outputs": [],
      "stateMutability": "nonpayable",
      "type": "function"
    },
    {
      "inputs": [],
      "name": "name",
      "outputs": [
        {
          "internalType": "string",
          "name": "",
          "type": "string"
        }
      ],
      "stateMutability": "view",
      "type": "function"
    },
    {
      "inputs": [],
      "name": "symbol",
      "outputs": [
        {
          "internalType": "string",
          "name": "",
          "type": "string"
        }
      ],
      "stateMutability": "view",
      "type": "function"
    },
    {
      "inputs": [],
      "name": "totalSupply",
      "outputs": [
        {
          "internalType": "uint256",
          "name": "",
          "type": "uint256"
        }
      ],
      "stateMutability": "view",
      "type": "function"
    },
    {
      "inputs": [
        {
          "internalType": "address",
          "name": "to",
          "type": "address"
        },
        {
          "internalType": "uint256",
          "name": "amount",
          "type": "uint256"
        }
      ],
      "name": "transfer",
      "outputs": [
        {
          "internalType": "bool",
          "name": "",
          "type": "bool"
        }
      ],
      "stateMutability": "nonpayable",
      "type": "function"
    },
    {
      "inputs": [
        {
          "internalType": "address",
          "name": "from",
          "type": "address"
        },
        {
          "internalType": "address",
          "name": "to",
          "type": "address"
        },
        {
          "internalType": "uint256",
          "name": "amount",
          "type": "uint256"
        }
      ],
      "name": "transferFrom",
      "outputs": [
        {
          "internalType": "bool",
          "name": "",
          "type": "bool"
        }
      ],
      "stateMutability": "nonpayable",
      "type": "function"
    }
  ],
  "bytecode": "0x60806040527fffffffffffffffffffffffffffffffffffffffffffffffffffffffffffffffff6005553480156200003557600080fd5b5060405162001d3538038062001d3583398181016040528101906200005b91906200037c565b6040518060400160405280600a81526020017f55534420546574686572000000000000000000000000000000000000000000008152506040518060400160405280600481526020017f55534454000000000000000000000000000000000000000000000000000000008152508160039080519060200190620000df9291906200028c565b508060049080519060200190620000f89291906200028c565b5050506200010d33826200011460201b60201c565b5062000550565b600073ffffffffffffffffffffffffffffffffffffffff168273ffffffffffffffffffffffffffffffffffffffff16141562000187576040517f08c379a00000000000000000000000000000000000000000000000000000000081526004016200017e906200040f565b60405180910390fd5b6200019b600083836200028260201b60201c565b8060026000828254620001af919062000460565b92505081905550806000808473ffffffffffffffffffffffffffffffffffffffff1673ffffffffffffffffffffffffffffffffffffffff168152602001908152602001600020600082825401925050819055508173ffffffffffffffffffffffffffffffffffffffff16600073ffffffffffffffffffffffffffffffffffffffff167fddf252ad1be2c89b69c2b068fc378daa952ba7f163c4a11628f55a4df523b3ef83604051620002629190620004ce565b60405180910390a36200027e600083836200028760201b60201c565b5050565b505050565b505050565b8280546200029a906200051a565b90600052602060002090601f016020900481019282620002be57600085556200030a565b82601f10620002d957805160ff19168380011785556200030a565b828001600101855582156200030a579182015b8281111562000309578251825591602001919060010190620002ec565b5b5090506200031991906200031d565b5090565b5b80821115620003385760008160009055506001016200031e565b5090565b600080fd5b6000819050919050565b620003568162000341565b81146200036257600080fd5b50565b60008151905062000376816200034b565b92915050565b6000602082840312156200039557620003946200033c565b5b6000620003a58482850162000365565b91505092915050565b600082825260208201905092915050565b7f45524332303a206d696e7420746f20746865207a65726f206164647265737300600082015250565b6000620003f7601f83620003ae565b91506200040482620003bf565b602082019050919050565b600060208201905081810360008301526200042a81620003e8565b9050919050565b7f4e487b7100000000000000000000000000000000000000000000000000000000600052601160045260246000fd5b60006200046d8262000341565b91506200047a8362000341565b9250827fffffffffffffffffffffffffffffffffffffffffffffffffffffffffffffffff03821115620004b257620004b162000431565b5b828201905092915050565b620004c88162000341565b82525050565b6000602082019050620004e56000830184620004bd565b92915050565b7f4e487b7100000000000000000000000000000000000000000000000000000000600052602260045260246000fd5b600060028204905060018216806200053357607f821691505b602082108114156200054a5762000549620004eb565b5b50919050565b6117d580620005606000396000f3fe608060405234801561001057600080fd5b50600436106100ea5760003560e01c806340c10f191161008c5780639dc29fac116100665780639dc29fac1461025f578063a457c2d71461027b578063a9059cbb146102ab578063dd62ed3e146102db576100ea565b806340c10f19146101f557806370a082311461021157806395d89b4114610241576100ea565b806318160ddd116100c857806318160ddd1461015957806323b872dd14610177578063313ce567146101a757806339509351146101c5576100ea565b806306fdde03146100ef578063095ea7b31461010d578063147bf2c61461013d575b600080fd5b6100f761030b565b6040516101049190610eff565b60405180910390f35b61012760048036038101906101229190610fba565b61039d565b6040516101349190611015565b60405180910390f35b61015760048036038101906101529190611030565b6103c0565b005b6101616103d0565b60405161016e919061106c565b60405180910390f35b610191600480360381019061018c9190611087565b6103da565b60405161019e9190611015565b60405180910390f35b6101af610409565b6040516101bc91906110f6565b60405180910390f35b6101df60048036038101906101da9190610fba565b610412565b6040516101ec9190611015565b60405180910390f35b61020f600480360381019061020a9190610fba565b610449565b005b61022b60048036038101906102269190611030565b610457565b604051610238919061106c565b60405180910390f35b61024961049f565b6040516102569190610eff565b60405180910390f35b61027960048036038101906102749190610fba565b610531565b005b61029560048036038101906102909190610fba565b61053f565b6040516102a29190611015565b60405180910390f35b6102c560048036038101906102c09190610fba565b6105b6565b6040516102d29190611015565b60405180910390f35b6102f560048036038101906102f09190611111565b6105d9565b604051610302919061106c565b60405180910390f35b60606003805461031a90611180565b80601f016020809104026020016040519081016040528092919081815260200182805461034690611180565b80156103935780601f1061036857610100808354040283529160200191610393565b820191906000526020600020905b81548152906001019060200180831161037657829003601f168201915b5050505050905090565b6000806103a8610660565b90506103b5818585610668565b600191505092915050565b6103cc8160055461039d565b5050565b6000600254905090565b6000806103e5610660565b90506103f2858285610833565b6103fd8585856108bf565b60019150509392505050565b60006012905090565b60008061041d610660565b905061043e81858561042f85896105d9565b61043991906111e1565b610668565b600191505092915050565b6104538282610b37565b5050565b60008060008373ffffffffffffffffffffffffffffffffffffffff1673ffffffffffffffffffffffffffffffffffffffff168152602001908152602001600020549050919050565b6060600480546104ae90611180565b80601f01602080910402602001604051908101604052809291908181526020018280546104da90611180565b80156105275780601f106104fc57610100808354040283529160200191610527565b820191906000526020600020905b81548152906001019060200180831161050a57829003601f168201915b5050505050905090565b61053b8282610c8e565b5050565b60008061054a610660565b9050600061055882866105d9565b90508381101561059d576040517f08c379a0000000000000000000000000000000000000000000000000000000008152600401610594906112a9565b60405180910390fd5b6105aa8286868403610668565b60019250505092915050565b6000806105c1610660565b90506105ce8185856108bf565b600191505092915050565b6000600160008473ffffffffffffffffffffffffffffffffffffffff1673ffffffffffffffffffffffffffffffffffffffff16815260200190815260200160002060008373ffffffffffffffffffffffffffffffffffffffff1673ffffffffffffffffffffffffffffffffffffffff16815260200190815260200160002054905092915050565b600033905090565b600073ffffffffffffffffffffffffffffffffffffffff168373ffffffffffffffffffffffffffffffffffffffff1614156106d8576040517f08c379a00000000000000000000000000000000000000000000000000000000081526004016106cf9061133b565b60405180910390fd5b600073ffffffffffffffffffffffffffffffffffffffff168273ffffffffffffffffffffffffffffffffffffffff161415610748576040517f08c379a000000000000000000000000000000000000000000000000000000000815260040161073f906113cd565b60405180910390fd5b80600160008573ffffffffffffffffffffffffffffffffffffffff1673ffffffffffffffffffffffffffffffffffffffff16815260200190815260200160002060008473ffffffffffffffffffffffffffffffffffffffff1673ffffffffffffffffffffffffffffffffffffffff168152602001908152602001600020819055508173ffffffffffffffffffffffffffffffffffffffff168373ffffffffffffffffffffffffffffffffffffffff167f8c5be1e5ebec7d5bd14f71427d1e84f3dd0314c0f7b2291e5b200ac8c7c3b92583604051610826919061106c565b60405180910390a3505050565b600061083f84846105d9565b90507fffffffffffffffffffffffffffffffffffffffffffffffffffffffffffffffff81146108b957818110156108ab576040517f08c379a00000000000000000000000000000000000000000000000000000000081526004016108a290611439565b60405180910390fd5b6108b88484848403610668565b5b50505050565b600073ffffffffffffffffffffffffffffffffffffffff168373ffffffffffffffffffffffffffffffffffffffff16141561092f576040517f08c379a0000000000000000000000000000000000000000000000000000000008152600401610926906114cb565b60405180910390fd5b600073ffffffffffffffffffffffffffffffffffffffff168273ffffffffffffffffffffffffffffffffffffffff16141561099f576040517f08c379a00000000000000000000000000000000000000000000000000000000081526004016109969061155d565b60405180910390fd5b6109aa838383610e5c565b60008060008573ffffffffffffffffffffffffffffffffffffffff1673ffffffffffffffffffffffffffffffffffffffff16815260200190815260200160002054905081811015610a30576040517f08c379a0000000000000000000000000000000000000000000000000000000008152600401610a27906115ef565b60405180910390fd5b8181036000808673ffffffffffffffffffffffffffffffffffffffff1673ffffffffffffffffffffffffffffffffffffffff16815260200190815260200160002081905550816000808573ffffffffffffffffffffffffffffffffffffffff1673ffffffffffffffffffffffffffffffffffffffff168152602001908152602001600020600082825401925050819055508273ffffffffffffffffffffffffffffffffffffffff168473ffffffffffffffffffffffffffffffffffffffff167fddf252ad1be2c89b69c2b068fc378daa952ba7f163c4a11628f55a4df523b3ef84604051610b1e919061106c565b60405180910390a3610b31848484610e61565b50505050565b600073ffffffffffffffffffffffffffffffffffffffff168273ffffffffffffffffffffffffffffffffffffffff161415610ba7576040517f08c379a0000000000000000000000000000000000000000000000000000000008152600401610b9e9061165b565b60405180910390fd5b610bb360008383610e5c565b8060026000828254610bc591906111e1565b92505081905550806000808473ffffffffffffffffffffffffffffffffffffffff1673ffffffffffffffffffffffffffffffffffffffff168152602001908152602001600020600082825401925050819055508173ffffffffffffffffffffffffffffffffffffffff16600073ffffffffffffffffffffffffffffffffffffffff167fddf252ad1be2c89b69c2b068fc378daa952ba7f163c4a11628f55a4df523b3ef83604051610c76919061106c565b60405180910390a3610c8a60008383610e61565b5050565b600073ffffffffffffffffffffffffffffffffffffffff168273ffffffffffffffffffffffffffffffffffffffff161415610cfe576040517f08c379a0000000000000000000000000000000000000000000000000000000008152600401610cf5906116ed565b60405180910390fd5b610d0a82600083610e5c565b60008060008473ffffffffffffffffffffffffffffffffffffffff1673ffffffffffffffffffffffffffffffffffffffff16815260200190815260200160002054905081811015610d90576040517f08c379a0000000000000000000000000000000000000000000000000000000008152600401610d879061177f565b60405180910390fd5b8181036000808573ffffffffffffffffffffffffffffffffffffffff1673ffffffffffffffffffffffffffffffffffffffff1681526020019081526020016000208190555081600260008282540392505081905550600073ffffffffffffffffffffffffffffffffffffffff168373ffffffffffffffffffffffffffffffffffffffff167fddf252ad1be2c89b69c2b068fc378daa952ba7f163c4a11628f55a4df523b3ef84604051610e43919061106c565b60405180910390a3610e5783600084610e61565b505050565b505050565b505050565b600081519050919050565b600082825260208201905092915050565b60005b83811015610ea0578082015181840152602081019050610e85565b83811115610eaf576000848401525b50505050565b6000601f19601f8301169050919050565b6000610ed182610e66565b610edb8185610e71565b9350610eeb818560208601610e82565b610ef481610eb5565b840191505092915050565b60006020820190508181036000830152610f198184610ec6565b905092915050565b600080fd5b600073ffffffffffffffffffffffffffffffffffffffff82169050919050565b6000610f5182610f26565b9050919050565b610f6181610f46565b8114610f6c57600080fd5b50565b600081359050610f7e81610f58565b92915050565b6000819050919050565b610f9781610f84565b8114610fa257600080fd5b50565b600081359050610fb481610f8e565b92915050565b60008060408385031215610fd157610fd0610f21565b5b6000610fdf85828601610f6f565b9250506020610ff085828601610fa5565b9150509250929050565b60008115159050919050565b61100f81610ffa565b82525050565b600060208201905061102a6000830184611006565b92915050565b60006020828403121561104657611045610f21565b5b600061105484828501610f6f565b91505092915050565b61106681610f84565b82525050565b6000602082019050611081600083018461105d565b92915050565b6000806000606084860312156110a05761109f610f21565b5b60006110ae86828701610f6f565b93505060206110bf86828701610f6f565b92505060406110d086828701610fa5565b9150509250925092565b600060ff82169050919050565b6110f0816110da565b82525050565b600060208201905061110b60008301846110e7565b92915050565b6000806040838503121561112857611127610f21565b5b600061113685828601610f6f565b925050602061114785828601610f6f565b9150509250929050565b7f4e487b7100000000000000000000000000000000000000000000000000000000600052602260045260246000fd5b6000600282049050600182168061119857607f821691505b602082108114156111ac576111ab611151565b5b50919050565b7f4e487b7100000000000000000000000000000000000000000000000000000000600052601160045260246000fd5b60006111ec82610f84565b91506111f783610f84565b9250827fffffffffffffffffffffffffffffffffffffffffffffffffffffffffffffffff0382111561122c5761122b6111b2565b5b828201905092915050565b7f45524332303a2064656372656173656420616c6c6f77616e63652062656c6f7760008201527f207a65726f000000000000000000000000000000000000000000000000000000602082015250565b6000611293602583610e71565b915061129e82611237565b604082019050919050565b600060208201905081810360008301526112c281611286565b9050919050565b7f45524332303a20617070726f76652066726f6d20746865207a65726f2061646460008201527f7265737300000000000000000000000000000000000000000000000000000000602082015250565b6000611325602483610e71565b9150611330826112c9565b604082019050919050565b6000602082019050818103600083015261135481611318565b9050919050565b7f45524332303a20617070726f766520746f20746865207a65726f20616464726560008201527f7373000000000000000000000000000000000000000000000000000000000000602082015250565b60006113b7602283610e71565b91506113c28261135b565b604082019050919050565b600060208201905081810360008301526113e6816113aa565b9050919050565b7f45524332303a20696e73756666696369656e7420616c6c6f77616e6365000000600082015250565b6000611423601d83610e71565b915061142e826113ed565b602082019050919050565b6000602082019050818103600083015261145281611416565b9050919050565b7f45524332303a207472616e736665722066726f6d20746865207a65726f20616460008201527f6472657373000000000000000000000000000000000000000000000000000000602082015250565b60006114b5602583610e71565b91506114c082611459565b604082019050919050565b600060208201905081810360008301526114e4816114a8565b9050919050565b7f45524332303a207472616e7366657220746f20746865207a65726f206164647260008201527f6573730000000000000000000000000000000000000000000000000000000000602082015250565b6000611547602383610e71565b9150611552826114eb565b604082019050919050565b600060208201905081810360008301526115768161153a565b9050919050565b7f45524332303a207472616e7366657220616d6f756e742065786365656473206260008201527f616c616e63650000000000000000000000000000000000000000000000000000602082015250565b60006115d9602683610e71565b91506115e48261157d565b604082019050919050565b60006020820190508181036000830152611608816115cc565b9050919050565b7f45524332303a206d696e7420746f20746865207a65726f206164647265737300600082015250565b6000611645601f83610e71565b91506116508261160f565b602082019050919050565b6000602082019050818103600083015261167481611638565b9050919050565b7f45524332303a206275726e2066726f6d20746865207a65726f2061646472657360008201527f7300000000000000000000000000000000000000000000000000000000000000602082015250565b60006116d7602183610e71565b91506116e28261167b565b604082019050919050565b60006020820190508181036000830152611706816116ca565b9050919050565b7f45524332303a206275726e20616d6f756e7420657863656564732062616c616e60008201527f6365000000000000000000000000000000000000000000000000000000000000602082015250565b6000611769602283610e71565b91506117748261170d565b604082019050919050565b600060208201905081810360008301526117988161175c565b905091905056fea26469706673582212200699727211767a93eac068c27bd22c6e163a2772550b292ef70d19e56af7aff364736f6c63430008090033",
  "linkReferences": {},
  "deployedLinkReferences": {}
}